:10000000F8C0000027C1000025C1000023C1000086
:1000100021C100001FC100001DC100001BC1000064
:1000200019C1000017C1000015C1000013C1000074
:1000300011C100000FC100000DC100000BC1000084
:1000400009C1000007C1000005C1000003C1000094
:1000500001C10000FFC00000FDC000000C94700C46
:10006000F9C000000C943A0F0C94700FF3C000001C
:10007000F1C00000EFC00000EDC00000EBC00000C8
:10008000E9C00000E7C00000E5C00000E3C00000D8
:100090000C94C60F0C94FC0FDDC00000DBC0000008
:1000A000D9C00000D7C00000D5C00000D3C00000F8
:1000B000D1C00000CFC00000CDC00000CBC0000008
:1000C000C9C00000C7C00000C5C000000C94521099
:1000D0000C948810BFC000000C94DE100C94141116
:1000E000B9C0000000000A0B02090C0D0E0807033E
:1000F00004010000000000000000000000000000FB
:1001000000000000000000000000000000000000EF
:1001100012111000000000000000000000000000AC
:100120000000000000000000000001021020200874
:100130000810204010204080020102010804020142
:1001400001020408102040808040201008040201B1
:10015000800402018040201008040201080402010A
:100160000102040810204080010204081020408091
:1001700005050505070508080808020202020A0A23
:100180000808040404040101010101010101030341
:10019000030303030303040707070C0C0C0C0C0CEC
:1001A0000C0C0202020206060606060606060B0BE9
:1001B0000B0B0B0B0B0B00002200250028002B0063
:1001C0002E003100340002010000050108010B017E
:1001D00000002100240027002A002D0030003300F9
:1001E00001010000040107010A01990F2510B11057
:1001F0003D1111241FBECFEFD1E2DEBFCDBF00E025
:100200000CBF12E0A0E0B2E0E6E8F3E200E00BBFD2
:1002100002C007900D92AE33B107D9F725E0AEE3E7
:10022000B2E001C01D92AC3DB207E1F710E0C9EFAA
:10023000D0E000E006C021970109802FFE010E9456
:10024000B911C53FD10780E00807A9F70E947009DE
:100250000C94C111D5CE611102C00C94A70D613070
:10026000E1F362E0FACF662319F061E00C94E30D4C
:1002700060E0FCCF60E070E080E89FE7089560E018
:1002800070E080E89FE7089560E070E080E89FEF0D
:10029000089560E070E080E89FEF089560E070E00E
:1002A00080EC9FEF089560E070E080EC9FEF089590
:1002B000F5DF6093760570937705809378059093CA
:1002C0007905F1DF60936A0570936B0580936C0587
:1002D00090936D05CFDF60937205709373058093E3
:1002E000740590937505CBDF60936E0570936F0571
:1002F0008093700590937105C7DF60937A057093C2
:100300007B0580937C0590937D05C3DF60937E051C
:1003100070937F05809380059093810508950F93D6
:100320001F938B019C010027112720783F7701152F
:10033000110520483F4749F4AB01BC016F7777278F
:1003400081E0452B462B472B09F480E01F910F914C
:100350000895E5CFCF92DF92EF92FF926B017C017F
:100360009F7720E030E040E859E50E941E0A87FFB1
:100370002AC020E030E040E05FE3C701B6010E9400
:10038000C00B87FD0DC020E030E040E05FE3C70117
:10039000B601DDD7FF90EF90DF90CF900C94F80A74
:1003A00020E030E040E05FEBC701B6010E94C00BE7
:1003B000181684F420E030E0A901C701B6010E94BC
:1003C000C40B6B017C01C701B601FF90EF90DF9079
:1003D000CF90089520E030E040E05FE3C701B60130
:1003E000B5D7FF90EF90DF90CF900C940B0A2F922F
:1003F0003F924F925F926F927F928F929F92AF92B5
:10040000BF92CF92DF92EF92FF920F931F93CF9301
:10041000DF93CDB7DEB762970FB6F894DEBF0FBE9D
:10042000CDBFE091D802F091D90220813181428183
:1004300053812D833E834F83588720910002309152
:1004400001024091020250910302609104027091F6
:100450000502809106029091070278D76B017C011A
:10046000E894F7F860900C0270900D0200910E0273
:1004700010910F028090100290901102A090120231
:10048000B090130220E030E040EA50E4C701B6012A
:10049000D5D787FF3FC220E030E040EA50E4C701F3
:1004A000B601D0D71B012C012DEC3CEC4CE45EE3F3
:1004B000C5D7181644F09DEC292E9CEC392E9CE4EF
:1004C000492E9EE3592E9301A801C201B1010E9459
:1004D000C40B69837987582E492E20E030E040E034
:1004E0005FE3C501B4010E94C40B4B015C0120E035
:1004F00030E040EA50E469817985852D942D0E9491
:10050000C00B87FF06C019821986B0EA5B2E80E413
:10051000482E9301A80169817985852D942D8ED768
:1005200018160CF415C289819985A52DB42D8093D8
:10053000BA059093BB05A093BC05B093BD0520E020
:1005400030E048E452E4C501B4010E94C00B87FFCB
:1005500006C0812C912CA8E4AA2EA2E4BA2E4090C9
:100560001002509011026090120270901302A501C7
:100570009401C301B2010E94C00B87FDF7C18092B4
:10058000BE059092BF05A092C005B092C1058091B2
:10059000B6052091BE053091BF054091C005509130
:1005A000C10529833A834B835C8381114FC081E06D
:1005B0008093B60527E137EB41ED58E3C701B6015B
:1005C0003DD787FF08C0F7E1CF2EF7EBDF2EF1ED27
:1005D000EF2EF8E3FF2E8090BA059090BB05A09017
:1005E000BC05B090BD05A5019401C501B4010E94F0
:1005F000C40B29813A814B815C8124D720E030E013
:1006000040EC5FE30E94C40B2B013C01AC019B0159
:10061000C701B6010E94C00B87FDBEC18092B20522
:100620009092B305A092B405B092B505A3019201D2
:10063000C701B6018BD6A501940104D76093AE051E
:100640007093AF058093B0059093B10520919E05FE
:1006500030919F054091A0055091A1056D817E814B
:100660008F81988573D62B013C013091B2053A8B6E
:100670004091B305498B1091B4050091B50520E078
:1006800030E040E45FE369817A818B819C810E9444
:10069000C40B9B01AC016A897989812F902FD2D636
:1006A0006B017C018091AE059091AF05A091B005E2
:1006B000B091B1058D879E87AF87B88B20E030E081
:1006C00040E450E4C701B6010E94C40B2D853E856D
:1006D0004F8558893CD669877A878B879C8780901D
:1006E0009A0590909B05A0909C05B0909D059B015C
:1006F000AC01C301B2010E94C00B87FF4BC0C50112
:10070000B40108D761507109660F771F660F771F14
:10071000DB01A050BE4F1D0120E030E040E85FE368
:10072000C501B40113D6F6D661507109660F771F63
:10073000660F771FFB01E050FE4F2081318142811F
:100740005381F1016081718182819381FFD59B0189
:10075000AC015F776091AA057091AB058091AC0503
:100760009091AD050E94C00B87FD52C120E030E0A2
:1007700040E05FE3C701B6010E94C40B9B01AC01DE
:1007800069857A858B859C85E1D5A301920156D632
:1007900087FF3EC11092CE051092CF051092D00572
:1007A0001092D1051092D6051092D7051092D80557
:1007B0001092D90520E030E040E450E4C501B401D6
:1007C0003DD687FF9AC020E030E040E85FE3C501F6
:1007D000B401BDD56B017C01C0929A05D0929B05F6
:1007E000E0929C05F0929D052D813E814F815885B8
:1007F00020939E0530939F054093A0055093A1053B
:100800001092AA051092AB051092AC051092AD059E
:1008100081D6AB0141505109440F551F440F551F5C
:1008200040505E4F5E834D8320E030E040E85FE360
:10083000C701B6018BD56ED661507109660F771F5F
:10084000660F771FFB01E050FE4F2081318142810E
:100850005381AD81BE816D917D918D919C9176D5B5
:100860006B017C01E894F7F827E137EB41ED58E3A1
:10087000C701B601E3D587FF08C027E1C22E27EBE9
:10088000D22E21EDE22E28E3F22E8090BA05909030
:10089000BB05A090BC05B090BD05A5019401C501A4
:1008A000B40172D729813A814B815C81CBD520E09C
:1008B00030E040EC5FE368D72B013C01AC019B01C9
:1008C000C701B6015DD787FD85C08092B2059092C1
:1008D000B305A092B405B092B505A3019201C7017A
:1008E000B60134D5A5019401ADD56093AE057093E2
:1008F000AF058093B0059093B105C12CD12CE12CAC
:10090000F12C1092A6051092A7051092A80510923E
:10091000A90528C120E030E040E551E4C701B60157
:100920008DD587FF10C020E030E040E551E4C701DD
:10093000B60188D590D79301A80126D76983798716
:10094000582E492ED4CD69827986502E412ECFCD96
:10095000B301C801FEDC8111E6CD80910C029091BB
:100960000D02A0910E02B0910F02E1CDC301B201C0
:10097000F0DC811104CE8091100290911102A091BF
:100980001202B09113028093BE059093BF05A0930D
:10099000C005B093C105FBCDA701960169817A819D
:1009A0008B819C81F1D620E030E040EC5FE34AD5BA
:1009B00052D76093B2057093B3058093B4059093BA
:1009C000B5051092AE051092AF051092B0051092C9
:1009D000B1053CCEA701960169817A818B819C810A
:1009E000D3D620E030E040EC5FE32CD534D76093E1
:1009F000B2057093B3058093B4059093B50510923A
:100A0000AE051092AF051092B0051092B10575CFEA
:100A1000A7019601C301B20111D587FF0DC2A7013D
:100A2000960169817A818B819C810CD54B015C0197
:100A300020E030E040E05FE3A7D66B017C01A3013A
:100A40009201C301B201A0D69B01AC01C701B6015E
:100A50009BD66B017C01A5019401C301B20194D620
:100A60006093CE057093CF058093D0059093D10508
:100A70008092D6059092D705A092D805B092D9055C
:100A80002DEC3CEC4CE45DE3B601C70179D61816B9
:100A90000CF037CF2091A2053091A3054091A40519
:100AA0005091A5056D817E818F8198854FD44B0132
:100AB0005C0120E030E040E253E4B601C70164D6B7
:100AC0009B01AC0160E070E080E89FE3BBD420E0D4
:100AD00030E040E05FE358D69B01AC01C501B401B2
:100AE0004FD687FD3FC08090AA059090AB05A0909F
:100AF000AC05B090AD052091A6053091A7054091B9
:100B0000A8055091A90560E070E080E89FE31ED43D
:100B10006093A6057093A7058093A8059093A905F7
:100B20002D813E814F8158852093A2053093A305E6
:100B30004093A4055093A50520E030E040E85FE332
:100B40007DD481110FC02DEC3CEC4CEC5BE3C50176
:100B5000B401FDD36093AA057093AB058093AC05F7
:100B60009093AD058090A6059090A705A090A8054C
:100B7000B090A9058092C2059092C305A092C405C9
:100B8000B092C50540909A0550909B0560909C05D9
:100B900070909D05C301B201BDD4AB014150510914
:100BA000440F551F440F551F40505E4F5A834983D1
:100BB00020E030E040E85FE3C301B201C7D3AAD42C
:100BC00061507109660F771F660F771FFB01E050B8
:100BD000FE4F2081318142815381A981BA816D917B
:100BE0007D918D919C91CCD587FD47C280E090E0AE
:100BF000A0E8BFE38093C6059093C705A093C805FE
:100C0000B093C905C601D7018093CA059093CB055F
:100C1000A093CC05B093CD058091AA059091AB052A
:100C2000A091AC05B091AD058093D2059093D3050A
:100C3000A093D405B093D505C501B4018BDB6B013E
:100C40007C0120E030E040E853E4F8D36FEF87FF09
:100C50000CC020E030E0A901C701B60191D560E0E9
:100C600087FD03C0C701B6015AD483E0FCDA609166
:100C7000C6057091C7058091C8059091C9056ADBCA
:100C80006B017C0120E030E040E853E4D7D36FEF04
:100C900087FF0CC020E030E0A901C701B60170D584
:100CA00060E087FD03C0C701B60139D486E0DBDA16
:100CB00060911402709115028091160290911702B2
:100CC00049DB6B017C0120E030E040E853E4B6D31F
:100CD0006FEF87FF0CC020E030E0A901C701B6012B
:100CE0004FD560E087FD03C0C701B60118D488E086
:100CF000BADAC090C202D090C302E090C402F09071
:100D0000C502BFEFCB1ADB0AEB0AFB0AC092C20294
:100D1000D092C302E092C402F092C502C114D10481
:100D2000E104F10499F48091C6029091C702A09168
:100D3000C802B091C9020196A11DB11D8093C602DF
:100D40009093C702A093C802B093C9028090CA02D0
:100D50009090CB02A090CC02B090CD02E091D8024E
:100D6000F091D902FA83E9836091C6027091C702BB
:100D70008091C8029091C902FED3A501940104D5C7
:100D800020E030E040E85FE4FFD42B013C01C701E4
:100D9000B601F1D3A5019401F7D49B01AC01C301C5
:100DA000B201D5D2A981BA816D937D938D939C9325
:100DB00013978091CE029091CF02A091D002B09172
:100DC000D1020196A11DB11D8093CE029093CF0256
:100DD000A093D002B093D102892B8A2B8B2B99F44C
:100DE0008091D2029091D302A091D402B091D50209
:100DF0000196A11DB11D8093D2029093D302A093BE
:100E0000D402B093D50262960FB6F894DEBF0FBE3F
:100E1000CDBFDF91CF911F910F91FF90EF90DF90A9
:100E2000CF90BF90AF909F908F907F906F905F908A
:100E30004F903F902F90089520E030E040EC5FE32A
:100E4000C701B601A1D44B015C01A301920198D462
:100E500018160CF052C020E030E040E05FE36981FA
:100E60007A818B819C8190D4A70196018DD44B010E
:100E70005C01A7019601C301B20168D229813A81C0
:100E80004B815C8181D49B01AC01C501B4015FD26F
:100E90006B017C019B01AC016A897989812F902FBC
:100EA000CDD21816ACF01092CE051092CF0510924C
:100EB000D0051092D1051092D6051092D705109248
:100EC000D8051092D905CA88D988E12EF02ED8CD40
:100ED00029813A814B815C812093CE053093CF05E7
:100EE0004093D0055093D1051092D6051092D705A6
:100EF0001092D8051092D905C3CDA50194016D8536
:100F00007E858F85988923D2A301920139D4181642
:100F100054F229853A854B855C85C301B2018ED296
:100F200087FF9AC0A301920169857A858B859C858C
:100F30000DD24B015C0120E030E0A9017FD287FF98
:100F400003C0812C912C5401A7019601C501B40165
:100F500017D418160CF04DC020E030E040E05FE3FD
:100F600069817A818B819C810FD4A70196010CD471
:100F70002B013C01A7019601C501B401E7D12981EC
:100F80003A814B815C8100D49B01AC01C301B20169
:100F9000DED16B017C0189819A81AB81BC81B05823
:100FA0008093CE059093CF05A093D005B093D10543
:100FB0001092D6051092D7051092D8051092D90537
:100FC0009601A7016A897989812F902FD9D387FF4C
:100FD00057CD6A897989812F902FBBD9811150CD46
:100FE000C090B205D090B305E090B405F090B5057F
:100FF00047CDA701960169817A818B819C8122D29C
:101000002B013C0120E030E040E05FE3BDD36B0109
:101010007C01A5019401C501B401B6D39B01AC01CB
:10102000C701B601B1D36B017C01C301B201905875
:10103000A5019401A9D36093CE057093CF05809349
:10104000D0059093D1054092D6055092D705609275
:10105000D8057092D905B4CF1092CE051092CF0565
:101060001092D0051092D1051092D6051092D70596
:101070001092D8051092D90540CC80E090E0DC01B8
:10108000B9CDCF92DF92EF92FF920F931F93CF9340
:10109000DF9384E090E00CD9EEE3F2E084EADF0134
:1010A0001D928A95E9F786ED92E095838483C8EDD9
:1010B000D2E0D7AFC6AF0AEC12E0138B028BF093ED
:1010C000A702E093A602F383E28321E030E0DC0193
:1010D0002D933C9388E192E0918780878AED92E09E
:1010E0009983888347E157EB61E578E3F801408312
:1010F000518362837383EAEBF5E080E2DF011D92A6
:101100008A95E9F7C2E8D5E088E3FE0111928A9555
:10111000E9F711E01EABC12CD12C7601C394C9862E
:10112000DA86EB86FC8661E083E095D81D8718821D
:101130001DABC982DA82EB82FC8261E086E08BD84B
:101140001D83188A1FABC98ADA8AEB8AFC8A61E0A0
:1011500088E081D81D8B1CAA80E090E0A0E0B0E47C
:10116000888F998FAA8FBB8F1C8E1D8E1E8E1F8E0F
:1011700018A219A21AA21BA21CA21DA21EA21FA283
:1011800018A619A61AA61BA6DF91CF911F910F9141
:10119000FF90EF90DF90CF90089580918A058111A4
:1011A00003C081E080938A0580918205811103C08C
:1011B00081E08093820580919205811103C081E0D6
:1011C00080939205089540E855E260E070E090E079
:1011D00080E000C08130910571F01CF4892B39F05A
:1011E00008958230910559F0039769F0089526E03B
:1011F00086EF92E0DFC526E083E993E0FBCF26E0AF
:1012000080E394E0F7CF26E08DEC94E0F3CF0895EF
:10121000CF92DF92EF92FF920F931F93ABD3609325
:10122000E2027093E3028093E4029093E50200915E
:10123000E6021091E7022091E8023091E9026B0189
:101240007C01C01AD10AE20AF30A9701860102332F
:1012500011052105310508F16093E6027093E7025C
:101260008093E8029093E90225D084D30091E602AE
:101270001091E7022091E8023091E902601B710BA6
:10128000820B930B623371058105910570F081E04B
:1012900090E09093EC028093EB0281E01F910F911C
:1012A000FF90EF90DF90CF9008951092EC02109293
:1012B000EB02F3CF8091EA0291E0980F9093EA025B
:1012C000882349F021E030E03093EC022093EB02D8
:1012D0008093EA0208958BD88091EA028150F8CF7A
:1012E000CF93DF931092DB051092DA0568D36BDFA2
:1012F000C0912A02D0912B0219821882C2DEF89482
:1013000086DF81E028813981232B09F080E08093FA
:10131000DA0578948091DA05811107C03EDFF894F0
:1013200090E080E0DF91CF91089581E028813981BC
:10133000232B09F480E08093DB059091DB0581E0AD
:10134000911180E08093DA0563DFE4CF5058BB272A
:10135000AA270ED0C4C1B5D130F0BAD120F031F4F3
:101360009F3F11F41EF4AAC10EF4E095E7FB77C18C
:10137000E92FC6D180F3BA17620773078407950770
:1013800018F071F49EF5F5C10EF4E0950B2EBA2F0E
:10139000A02D0B01B90190010C01CA01A00111247B
:1013A000FF27591B99F0593F50F4503E68F11A1627
:1013B000F040A22F232F342F4427585FF3CF4695B8
:1013C00037952795A795F0405395C9F77EF41F16DA
:1013D000BA0B620B730B840BBAF09150A1F0FF0FA4
:1013E000BB1F661F771F881FC2F70EC0BA0F621F90
:1013F000731F841F48F4879577956795B795F79580
:101400009E3F08F0B3CF9395880F08F09927EE0F11
:1014100097958795089596D180F09F3740F4911164
:101420000EF4A8C160E070E080E89FE3089526F024
:101430001B16611D711D811D18C132C1ECD008F44D
:1014400081E008950CD04BC143D140F03AD130F047
:1014500021F45F3F19F003C151118CC12FC150D14C
:1014600098F39923C9F35523B1F3951B550BBB276B
:10147000AA2762177307840738F09F5F5F4F220F18
:10148000331F441FAA1FA9F333D00E2E3AF0E0E811
:1014900030D091505040E695001CCAF729D0FE2F5D
:1014A00027D0660F771F881FBB1F261737074807EF
:1014B000AB07B0E809F0BB0B802DBF01FF279358A5
:1014C0005F4F2AF09E3F510568F0C9C053C15F3F8E
:1014D000ECF3983EDCF3869577956795B795F7958D
:1014E0009F5FC9F7880F911D9695879597F9089585
:1014F000E1E0660F771F881FBB1F62177307840721
:10150000BA0720F0621B730B840BBA0BEE1F88F72F
:10151000E095089504D06894B1112CC10895F8D0D5
:1015200088F09F5790F0B92F9927B751A0F0D1F0CC
:10153000660F771F881F991F1AF0BA95C9F712C056
:10154000B13081F016D1B1E0089513C1672F782F23
:101550008827B85F39F0B93FCCF3869577956795C2
:10156000B395D9F73EF490958095709561957F4F2E
:101570008F4F9F4F0895E89409C097FB3EF49095D4
:101580008095709561957F4F8F4F9F4F9923A9F05C
:10159000F92F96E9BB279395F695879577956795EB
:1015A000B795F111F8CFFAF4BB0F11F460FF1BC02F
:1015B0006F5F7F4F8F4F9F4F16C0882311F096E9C2
:1015C00011C0772321F09EE8872F762F05C0662370
:1015D00071F096E8862F70E060E02AF09A95660F29
:1015E000771F881FDAF7880F9695879597F90895E2
:1015F000A9D080F09F3740F491110EF0BBC060E09D
:1016000070E080E89FEB089526F41B16611D711DA4
:10161000811D2BC045C0990F0008550FAA0BE0E8AB
:10162000FEEF16161706E807F907C0F012161306A4
:10163000E407F50798F0621B730B840B950B39F4E4
:101640000A2661F0232B242B252B21F408950A264A
:1016500009F4A140A6958FEF811D811D089597F98A
:101660009F6780E870E060E00895882371F4772335
:1016700021F09850872B762F07C0662311F4992705
:101680000DC09051862B70E060E02AF09A95660FAD
:10169000771F881FDAF7880F9695879597F9089531
:1016A0009F3F31F0915020F4879577956795B795D6
:1016B000880F911D9695879597F908959FEF80EC77
:1016C000089500240A9416161706180609060895A8
:1016D00000240A9412161306140605060895092E0E
:1016E0000394000C11F4882352F0BB0F40F4BF2B7D
:1016F00011F460FF04C06F5F7F4F8F4F9F4F0895BD
:1017000057FD9058440F551F59F05F3F71F04795B2
:10171000880F97FB991F61F09F3F79F08795089597
:10172000121613061406551FF2CF4695F1DF08C0B6
:10173000161617061806991FF1CF869571056105D3
:1017400008940895E5DFA0F0BEE7B91788F4BB2739
:101750009F3860F41616B11D672F782F8827985F81
:10176000F7CF869577956795B11D93959639C8F310
:101770000895E894BB2766277727CB0197F908954A
:101780004ADF08F48FEF08950BD0A9CF9ADF28F035
:101790009FDF18F0952309F062CF90CF1124EACF94
:1017A000AFDFA0F3959FD1F3950F50E0551F629FD7
:1017B000F001729FBB27F00DB11D639FAA27F00DAA
:1017C000B11DAA1F649F6627B00DA11D661F829FD1
:1017D0002227B00DA11D621F739FB00DA11D621FB6
:1017E000839FA00D611D221F749F3327A00D611DD3
:1017F000231F849F600D211D822F762F6A2F1124B5
:101800009F5750408AF0E1F088234AF0EE0FFF1F07
:10181000BB1F661F771F881F91505040A9F79E3F3E
:10182000510570F01CCFA6CF5F3FECF3983EDCF380
:10183000869577956795B795F795E7959F5FC1F77B
:10184000FE2B880F911D9695879597F9089511F4B1
:101850000EF434CF25CF5CDFD0F39923D9F3CEF348
:101860009F57550B87FF35D00024A0E640EA900132
:1018700080585695979528F4805C660F771F881FCF
:1018800020F026173707480730F4621B730B840BD0
:10189000202931294A2BA695179407942025312514
:1018A0004A2758F7660F771F881F20F0261737073B
:1018B000480730F4620B730B840B200D311D411D62
:1018C000A09581F7B901842F9158880F9695879537
:1018D000089591505040660F771F881FD2F70895E2
:1018E0001F920F920FB60F9211242F933F938F9355
:1018F0009F93AF93BF938091EE029091EF02A091DE
:10190000F002B091F1023091ED0223E0230F2D3768
:1019100058F50196A11DB11D2093ED028093EE02B2
:101920009093EF02A093F002B093F1028091F20243
:101930009091F302A091F402B091F5020196A11DDD
:10194000B11D8093F2029093F302A093F402B0933E
:10195000F502BF91AF919F918F913F912F910F9081
:101960000FBE0F901F90189526E8230F0296A11D19
:10197000B11DD2CF3FB7F8948091F2029091F3025B
:10198000A091F402B091F50226B5A89B05C02F3FA7
:1019900019F00196A11DB11D3FBFBA2FA92F982F95
:1019A0008827BC01CD01620F711D811D911D42E090
:1019B000660F771F881F991F4A95D1F7089578946D
:1019C00084B5826084BD84B5816084BD85B5826044
:1019D00085BD85B5816085BDEEE6F0E080818160E2
:1019E0008083E1E8F0E010828081826080838081E2
:1019F00081608083E0E8F0E0808181608083E1EBBA
:101A0000F0E0808184608083E0EBF0E080818160A1
:101A10008083E1E9F0E08081826080838081816061
:101A20008083E0E9F0E0808181608083E1EAF0E09A
:101A3000808182608083808181608083E0EAF0E041
:101A4000808181608083E1E2F1E080818260808337
:101A5000808181608083E0E2F1E080818160808329
:101A6000EAE7F0E080818460808380818260808307
:101A70008081816080838081806880831092C10032
:101A800008958150823108F059C0E82FF0E088278E
:101A9000E45BF24F8F4F6DC46C0D700D5E0D640DE5
:101AA000680D9E0D730D790D7D0D830D870D8B0DCA
:101AB000910D950D9E0D990D9F0DA30D80918000A8
:101AC0008F77809380000895809180008F7DF9CF7B
:101AD00080918000877FF5CF84B58F7784BD08958E
:101AE00084B58F7DFBCF8091B0008F778093B0005D
:101AF00008958091B0008F7DF9CF809190008F770D
:101B0000809390000895809190008F7DF9CF80910F
:101B10009000877FF5CF8091A0008F778093A00001
:101B200008958091A0008F7DF9CF8091A000877FDC
:101B3000F5CF809120018F778093200108958091C7
:101B400020018F7DF9CF80912001877FF5CFCF9342
:101B5000DF9390E0FC01E65DFE4F249180599E4F9B
:101B6000FC0184918823C9F090E0880F991FFC0143
:101B7000E053FE4FA591B491FC01EA54FE4FC5918C
:101B8000D49161110DC09FB7F8948C912095822358
:101B90008C938881282328839FBFDF91CF9108955C
:101BA000623051F49FB7F8943C91822F8095832343
:101BB0008C93E8812E2BEFCF8FB7F894EC912E2BDE
:101BC0002C938FBFEACF1F93CF93DF93282F30E062
:101BD000F901EC51FF4F8491F901E65DFE4FD4917C
:101BE000F901E059FE4FC491CC23A1F0162F8111C9
:101BF00048DFEC2FF0E0EE0FFF1FEA54FE4FA591F7
:101C0000B4918FB7F894EC91111108C0D095DE23F0
:101C1000DC938FBFDF91CF911F910895DE2BF8CF1A
:101C2000FC01918D228D892F90E0805C9F4F821B5B
:101C300091098F7399270895FC01918D828D9817D2
:101C400031F0828DE80FF11D858D90E008958FEFC2
:101C50009FEF0895FC01918D828D981761F0A28D00
:101C6000AE0FBF2FB11D5D968C91928D9F5F9F73BC
:101C7000928F90E008958FEF9FEF0895FC01538DB0
:101C8000448D252F30E0842F90E0821B930B541756
:101C900010F0CF96089501970895FC01A48DA80F28
:101CA000B92FB11DA35ABF4F2C91848D90E001969E
:101CB0008F739927848FA689B7892C93A089B189BE
:101CC0008C91837080648C93938D848D981306C05F
:101CD0000288F389E02D80818F7D80830895CF93E2
:101CE000DF93EC01888D8823B1F0AA89BB89E8894C
:101CF000F9898C9185FD03C0808186FD0CC00FB6EB
:101D000007FCF7CF8C9185FFF2CF808185FFEDCF67
:101D1000CE01C3DFEACFDF91CF910895EF92FF921A
:101D20000F931F93CF93DF93EC0181E0888F9B8DFE
:101D30008C8D98131AC0E889F989808185FF15C0B8
:101D40009FB7F894EE89FF896083E889F9898081DB
:101D50008370806480839FBF81E090E0DF91CF91AA
:101D60001F910F91FF90EF900895F62E0B8D10E0CC
:101D70000F5F1F4F0F731127E02E8C8D8E110BC03C
:101D80000FB607FCFACFE889F989808185FFF5CF86
:101D9000CE0183DFF2CFEB8DEC0FFD2FF11DE35A67
:101DA000FF4FF0829FB7F8940B8FEA89FB898081FF
:101DB0008062D0CFCF92DF92EF92FF921F93CF93AA
:101DC000DF93EC016A017B01122FE889F98982E037
:101DD0008083C11481EED806E104F10499F060E03B
:101DE00079E08DE390E0A7019601A1D2215031095D
:101DF000410951095695479537952795211580E159
:101E0000380790F0E889F989108260E874E88EE17B
:101E100090E0A70196018BD2215031094109510967
:101E20005695479537952795EC85FD853083EE854A
:101E3000FF852083188EEC89FD891083EA89FB8950
:101E4000808180618083EA89FB89808188608083CA
:101E5000EA89FB89808180688083EA89FB898081A7
:101E60008F7D8083DF91CF911F91FF90EF90DF9066
:101E7000CF9008951F920F920FB60F9211240BB6B8
:101E80000F922F938F939F93EF93FF93E09106030D
:101E9000F09107038081E0910C03F0910D0382FD26
:101EA0001DC0908180910F038F5F8F73209110036D
:101EB000821741F0E0910F03F0E0EA50FD4F958F5B
:101EC00080930F03FF91EF919F918F912F910F902E
:101ED0000BBE0F900FBE0F901F9018958081F2CF10
:101EE0001F920F920FB60F9211240BB60F922F93E1
:101EF0003F934F935F936F937F938F939F93AF9392
:101F0000BF93EF93FF9386EF92E0C7DEFF91EF91CF
:101F1000BF91AF919F918F917F916F915F914F9101
:101F20003F912F910F900BBE0F900FBE0F901F90FF
:101F30001895E6EFF2E01382128288EE93E0A0E0BB
:101F4000B0E084839583A683B78380E392E0918396
:101F5000808385EC90E09587848784EC90E0978778
:101F6000868780EC90E0918B808B81EC90E0938B66
:101F7000828B82EC90E0958B848B86EC90E0978B43
:101F8000868B118E128E138E148E08951F920F92CF
:101F90000FB60F9211240BB60F922F938F939F932E
:101FA000EF93FF93E091A303F091A4038081E0916C
:101FB000A903F091AA0382FD1DC090818091AC031A
:101FC0008F5F8F732091AD03821741F0E091AC03D6
:101FD000F0E0ED56FC4F958F8093AC03FF91EF91AD
:101FE0009F918F912F910F900BBE0F900FBE0F906E
:101FF0001F9018958081F2CF1F920F920FB60F920B
:1020000011240BB60F922F933F934F935F936F93CF
:102010007F938F939F93AF93BF93EF93FF9383E946
:1020200093E03BDEFF91EF91BF91AF919F918F9134
:102030007F916F915F914F913F912F910F900BBEC8
:102040000F900FBE0F901F901895E3E9F3E01382F5
:10205000128288EE93E0A0E0B0E084839583A683AB
:10206000B78380E392E0918380838DEC90E0958745
:1020700084878CEC90E09787868788EC90E0918B42
:10208000808B89EC90E0938B828B8AEC90E0958B2F
:10209000848B8EEC90E0978B868B118E128E138E34
:1020A000148E08951F920F920FB60F9211240BB643
:1020B0000F922F938F939F93EF93FF93E0914004A0
:1020C000F09141048081E0914604F091470482FD43
:1020D0001DC09081809149048F5F8F7320914A04C5
:1020E000821741F0E0914904F0E0E05DFB4F958FED
:1020F00080934904FF91EF919F918F912F910F90C1
:102100000BBE0F900FBE0F901F9018958081F2CFDD
:102110001F920F920FB60F9211240BB60F922F93AE
:102120003F934F935F936F937F938F939F93AF935F
:10213000BF93EF93FF9380E394E0AFDDFF91EF91C6
:10214000BF91AF919F918F917F916F915F914F91CF
:102150003F912F910F900BBE0F900FBE0F901F90CD
:102160001895E0E3F4E01382128288EE93E0A0E099
:10217000B0E084839583A683B78380E392E0918364
:10218000808385ED90E09587848784ED90E0978744
:10219000868780ED90E0918B808B81ED90E0938B32
:1021A000828B82ED90E0958B848B86ED90E0978B0F
:1021B000868B118E128E138E148E08951F920F929D
:1021C0000FB60F9211240BB60F922F938F939F93FC
:1021D000EF93FF93E091DD04F091DE048081E091C4
:1021E000E304F091E40482FD1DC090818091E60437
:1021F0008F5F8F732091E704821741F0E091E6042E
:10220000F0E0E353FB4F958F8093E604FF91EF914D
:102210009F918F912F910F900BBE0F900FBE0F903B
:102220001F9018958081F2CF1F920F920FB60F92D8
:1022300011240BB60F922F933F934F935F936F939D
:102240007F938F939F93AF93BF93EF93FF938DEC07
:1022500094E023DDFF91EF91BF91AF919F918F911A
:102260007F916F915F914F913F912F910F900BBE96
:102270000F900FBE0F901F901895EDECF4E01382B5
:10228000128288EE93E0A0E0B0E084839583A68379
:10229000B78380E392E09183808385E391E0958723
:1022A000848784E391E09787868780E391E0918B30
:1022B000808B81E391E0938B828B82E391E0958B1D
:1022C000848B86E391E0978B868B118E128E138E12
:1022D000148E0895AF92BF92CF92DF92EF92FF9249
:1022E0000F931F93CF93DF936C017B018B01040F3E
:1022F000151FEB015E01AE18BF08C017D10759F0DA
:102300006991D601ED91FC910190F081E02DC6011B
:102310001995892B79F7C501DF91CF911F910F9105
:10232000FF90EF90DF90CF90BF90AF900895A1E223
:102330001A2EAA1BBB1BFD010DC0AA1FBB1FEE1F3F
:10234000FF1FA217B307E407F50720F0A21BB30B8A
:10235000E40BF50B661F771F881F991F1A9469F706
:1023600060957095809590959B01AC01BD01CF0162
:102370000895EE0FFF1F881F8BBF0790F691E02D89
:062380001994F894FFCF50
:10238600000000000000704100000000000048430B
:1023960000001644000000004669786564537465C1
:1023A600704469736372657465003E020000000044
:0E23B6008E0E6A113E0E6F0E100E2A0E1C0EB9
:00000001FF
