:1000000039C1000068C1000066C1000064C1000081
:1000100062C1000060C100005EC100005CC1000060
:100020005AC1000058C1000056C1000054C1000070
:1000300052C1000050C100004EC100004CC1000080
:100040004AC1000048C1000046C1000044C1000090
:1000500042C1000040C100003EC100000C94A21447
:100060003AC100000C946C170C94A21734C1000024
:1000700032C1000030C100002EC100002CC10000C0
:100080002AC1000028C1000026C1000024C10000D0
:100090000C94F8170C942E181EC100001CC100000F
:1000A0001AC1000018C1000016C1000014C10000F0
:1000B00012C1000010C100000EC100000CC1000000
:1000C0000AC1000008C1000006C100000C94841899
:1000D0000C94BA1800C100000C9410190C94461925
:1000E000FAC0000007634236B79BD8A71A39685692
:1000F00018AEBAAB558C1D3CB7CC5763BD6DEDFD4A
:10010000753EF6177231BF000000803F0800000006
:10011000BE922449123EABAAAA2ABECDCCCC4C3EFC
:1001200000000080BEABAAAAAA3E00000000BF00EB
:100130000000803F0000000000084178D3BB4387E7
:10014000D1133D190E3CC3BD4282AD2B3E68EC82FB
:1001500076BED98FE1A93E4C80EFFFBE01C4FF7F80
:100160003F000000000000000A0B02090C0D0E0801
:100170000703040100000000000000000000000070
:10018000000000000000000000000000000000006F
:10019000000012111000000000000000000000002C
:1001A000000000000000000000000000010210201C
:1001B000200808102040102040800201020108049D
:1001C0000201010204081020408080402010080431
:1001D000020180040201804020100804020108048A
:1001E00002010102040810204080010204081020CE
:1001F00040800505050507050808080802020202F7
:100200000A0A0808040404040101010101010101B2
:100210000303030303030303040707070C0C0C0C7D
:100220000C0C0C0C02020202060606060606060666
:100230000B0B0B0B0B0B0B0B0000220025002800F7
:100240002B002E00310034000201000005010801DE
:100250000B0100002100240027002A002D0030009F
:10026000330001010000040107010A01CB175718F0
:10027000E3186F1911241FBECFEFD1E2DEBFCDBF4F
:1002800000E00CBF12E0A0E0B2E0EAEEF3E300E031
:100290000BBF02C007900D92AA34B107D9F729E02D
:1002A000AAE4B2E001C01D92AF35B207E1F711E058
:1002B000CAE3D1E000E006C021970109802FFE01CA
:1002C0000E94EB19C633D10780E00807A9F70E9406
:1002D000FD0F0C94F31994CE611102C00C94D91542
:1002E0006130E1F362E0FACF662319F061E00C942B
:1002F000151660E0FCCF60E070E080E89FE70895AD
:1003000060E070E080E89FE7089560E070E080E8DA
:100310009FEF089560E070E080E89FEF089560E04F
:1003200070E080EC9FEF089560E070E080EC9FEF5C
:100330000895F5DF609382057093830580938405AB
:1003400090938505F1DF6093760570937705809330
:10035000780590937905CFDF60937E0570937F05D4
:100360008093800590938105CBDF60937A0570932D
:100370007B0580937C0590937D05C7DF60938605A0
:10038000709387058093880590938905C3DF6093F8
:100390008A0570938B0580938C0590938D05089545
:1003A000CF92DF92EF92FF92CF936B017C01AC0171
:1003B0009B0160917E0570917F05809180059091F1
:1003C00081050E94AB10C1E0882371F0A70196015E
:1003D00060918605709187058091880590918905C7
:1003E0000E94AB108111C0E08C2FCF91FF90EF9055
:1003F000DF90CF9008950F931F938B019C010027EE
:10040000112720783F770115110520483F4749F40F
:10041000AB01BC016F77772781E0452B462B472B3B
:1004200009F480E01F910F910895E5CF4F925F92FC
:100430006F927F928F929F92AF92BF92CF92DF92F4
:10044000EF92FF920F931F93CF93DF937C015B0199
:100450006091F3087091F4088091F5089091F60886
:10046000E4DF4090F3085090F4086090F508709035
:10047000F608811143C001E010E0D0E0C0E079E06F
:10048000C72ED12C48018FEF881A980A8C149D042E
:100490000CF492C0CC0FDD1FCC0FDD1FF701EC0F69
:1004A000FD1F2081318142815381C301B2010E942D
:1004B00033102B013C01CA0DDB1D288139814A8193
:1004C0005B810E949F1228A139A14AA15BA10E94D1
:1004D0003410A30192010E949F12C05CDF4F28815B
:1004E00039814A815B810E943410609313097093B3
:1004F0001409809315099093160908C040921309B6
:100500005092140960921509709216096091F708CB
:100510007091F8088091F9089091FA0886DF409070
:10052000F7085090F8086090F9087090FA08811167
:1005300062C001E010E0D0E0C0E039E0C32ED12C71
:1005400048018FEF881A980A8C149D040CF46CC033
:10055000CC0FDD1FCC0FDD1FF701EC0FFD1F20813D
:10056000318142815381C301B2010E9433106B017A
:100570007C01CA0DDB1D288139814A815B810E9483
:100580009F1228A139A14AA15BA10E943410A701A2
:1005900096010E949F12C05CDF4F288139814A81F9
:1005A0005B810E943410609317097093180980933F
:1005B000190990931A0927C086010C0F1D1F0F5FA0
:1005C0001F4F15950795F801E150F04CEE0FFF1FF6
:1005D000EE0FFF1FEE0DFF1D2081318142815381FF
:1005E000C301B2010E949B1287FD03C0E80121975D
:1005F00049CF68014BCF4092170950921809609279
:10060000190970921A09DF91CF911F910F91FF90F4
:10061000EF90DF90CF90BF90AF909F908F907F90A2
:100620006F905F904F90089586010C0F1D1F0F5F14
:100630001F4F15950795F801E150F04CEE0FFF1F85
:10064000EE0FFF1FEE0DFF1D20813181428153818E
:10065000C301B2010E949B1287FD03C0E8012197EC
:100660006FCF680171CF4F925F926F927F92AF927E
:10067000BF92CF92DF92EF92FF920F931F93CF938F
:10068000DF935C012A013B0101E010E0D0E0C0E013
:1006900039E0C32ED12C78018FEFE81AF80AEC1458
:1006A000FD04D4F1CC0FDD1FCC0FDD1FFE01E9519D
:1006B000FA4F2081318142815381C301B2010E94EE
:1006C00033106B017C01CA0DDB1D288139814A8101
:1006D0005B810E949F1228A139A14AA15BA10E94BF
:1006E0003410A70196010E949F12C05CDF4F288141
:1006F00039814A815B810E943410DF91CF911F9133
:100700000F91FF90EF90DF90CF90BF90AF907F90D0
:100710006F905F904F90089586010C0F1D1F0F5F23
:100720001F4F15950795F801EE0FFF1FEE0FFF1FE6
:10073000ED51FA4F6081718182819381A301920111
:100740000E94AB1018161CF0E8012197A4CF680195
:10075000A6CF2F923F926F927F928F929F92AF92ED
:10076000BF92CF92DF92EF92FF920F931F93CF939E
:10077000DF9300D000D0CDB7DEB71B013C0189016B
:100780004E835D8320E030E0A901B8018E819D8118
:100790000E94AB10811125C020E030E0A901B10119
:1007A000C3010E94AB10882309F467C06101730183
:1007B000B601C70126960FB6F894DEBF0FBECDBFB7
:1007C000DF91CF911F910F91FF90EF90DF90CF902D
:1007D000BF90AF909F908F907F906F903F902F90A1
:1007E0000895B101C30121DE882349F0C09082053C
:1007F000D0908305E0908405F0908505D9CFB801AD
:100800008E819D8112DE8111F1CFB101C301C8DD5E
:100810008111ECCF20E030E0A901B101C3010E94B9
:10082000AB1081110BC098014E815D8160E070E0DA
:10083000CB010E94AF106B017C01BACFB8018E8151
:100840009D81AEDD8823E9F020E030E0A901B80108
:100850008E819D810E94AB10F82EFF1CFF24FF1C8F
:1008600020E030E0A901B101C3010E94AB10881F54
:100870008827881FF81609F499CF6801EE80FD805B
:1008800097CF98014E815D81B101C3010E949F11F4
:100890006B017C01BB24B39420E030E0A9010E94ED
:1008A000AB108111B12C20E030E0A901B601C701E5
:1008B0000E94AB10882309F447C0B8018E819D8146
:1008C0000E9485119B01AC01B8018E819D810E941F
:1008D0009B121816CCF598014E815D81B101C301C0
:1008E0000E94AF104B015C01E894B7F820E030E0C3
:1008F00040E05FE3C501B4010E9434100E948511FD
:100900009B01AC01C501B4010E9433109B01AC01F5
:100910005F7729833A834B835C8320E030E040E0BB
:1009200054E3C501B4010E949F129B01AC01BB249A
:10093000B39469817A818B819C810E949B121816E5
:100940000CF0B12C81E0B82620E030E0A901BB20FA
:1009500031F0B8018E819D810E949F126CCFB10150
:10096000C3010E94AB10B82EBB1CBB24BB1C20E0F3
:1009700030E0A901B8018E819D810E94AB10881FD3
:100980008827881FB81609F413CF98014E815D811E
:10099000B601C7010E9434104ECF8F929F92AF9242
:1009A000BF92CF92DF92EF92FF926B017C014901DF
:1009B0005A013BDD882349F0C0908205D090830521
:1009C000E0908405F090850533C0C501B4012DDDAC
:1009D0008111F2CFC501B401E3DC882309F43DC0E5
:1009E000E894F7F820E030E040E85FE3C701B601A3
:1009F0000E94AB10882309F4AAC020E030E040E850
:100A00005FE3C701B6010E949B1220E030E0A9011C
:100A10001816CCF4C501B4010E949B121816CCF430
:100A2000C0907E05D0907F05E0908005F090810514
:100A3000C701B601FF90EF90DF90CF90BF90AF90CD
:100A40009F908F900895C501B4010E949B121816C3
:100A50003CF7C12CD12C7601EBCF20E030E0A9018E
:100A6000C501B4010E94AB10882309F470C020E0D6
:100A700030E040E85FE3C501B4019F770E94AB100E
:100A8000811114C020E030E0A901C501B4010E9429
:100A90009B1218166CF2A701960160E070E080E8E6
:100AA0009FE30E94AF106B017C01C2CF20E030E0D9
:100AB00040E050E4C501B4010E94AB10811107C0B1
:100AC000A7019601C701B6010E949F12ECCF20E05A
:100AD00030E040E05FE3C501B4010E94AB1020E0CC
:100AE00030E0A901811112C0C701B6010E949B121A
:100AF00087FD34C0C701B601FF90EF90DF90CF9023
:100B0000BF90AF909F908F900C945213C701B60185
:100B10000E94AB1087FF0DC0C501B4010E94851172
:100B20009B01AC01C501B4010E949B1218160CF484
:100B300043CFA5019401C701B601FF90EF90DF906C
:100B4000CF90BF90AF909F908F900C940213C12CC8
:100B5000D12C80E8E82E8FE3F82E6ACF20E030E039
:100B6000A901C701B6010E94AB1087FFE2CF24CFD5
:100B7000CF92DF92EF92FF926B017C019F7720E092
:100B800030E040E859E50E94AB1087FF2BC020E021
:100B900030E040E05FE3C701B6010E949B1287FD91
:100BA0000EC020E030E040E05FE3C701B6010E94E4
:100BB0003410FF90EF90DF90CF900C94851120E0DF
:100BC00030E040E05FEBC701B6010E949B121816AF
:100BD00084F420E030E0A901C701B6010E949F1211
:100BE0006B017C01C701B601FF90EF90DF90CF90C1
:100BF000089520E030E040E05FE3C701B6010E94C5
:100C00003310FF90EF90DF90CF900C9498102F92BC
:100C10003F924F925F926F927F928F929F92AF928C
:100C2000BF92CF92DF92EF92FF920F931F93CF93D9
:100C3000DF93CDB7DEB7E4970FB6F894DEBF0FBEF3
:100C4000CDBF20911C0230911D0240911E02509197
:100C50001F02E091E402F091E502608171818281DE
:100C6000938177DD60932709709328098093290980
:100C700090932A0923EB35E03A8F298FA8E0EA2EDA
:100C8000A2E0FA2E8901D8016D917D918D919D91FF
:100C90008D01F70121913191419151917F010E9484
:100CA000AB108111F7C7F5E00F3B1F0761F7C0904C
:100CB0001402D0901502E0901602F0901702A701DE
:100CC00096016091BF057091C0058091C10590911A
:100CD000C2050E94AB108823B9F080918E059091D7
:100CE0008F05A0919005B09191050197A105B105DF
:100CF00019F481E080939205C092BF05D092C0059F
:100D0000E092C105F092C205C0901802D09019027D
:100D1000E0901A02F0901B02A70196016091C305B2
:100D20007091C4058091C5059091C6050E94AB10D5
:100D30008823B9F080918E0590918F05A091900540
:100D4000B09191050197A105B10519F481E0809357
:100D50009205C092C305D092C405E092C505F092F9
:100D6000C605809192058111109292058091BF0570
:100D70009091C005A091C105B091C2058D8B9E8B4D
:100D8000AF8BB88F8091C3059091C405A091C50524
:100D9000B091C6058DA39EA3AFA3B8A7EFEDF7E072
:100DA00088E4DF011D928A95E9F7EBE9F8E0FC8B16
:100DB000EB8B119211921192119228E0E73BF2070E
:100DC000C1F72DA13EA14FA158A56D897E898F89BC
:100DD000988D0E94AF1069A77AA78BA79CA79B014B
:100DE000AC016D897E898F89988D0E949F1269ABB5
:100DF0007AAB8BAB9CAB87E298E09E878D871CA279
:100E00001BA21E0197E0290E311CE98DFA8D80800E
:100E10009180A280B38080924B0990924C09A0925D
:100E20004D09B0924E09C480D580E680F780C0920B
:100E30005309D0925409E0925509F0925609C09294
:100E40004F09D0925009E0925109F0925209A7013E
:100E50009601C501B4010E949B1201E010E0181632
:100E600094F4C0924B09D0924C09E0924D09F09253
:100E70004E0980924F0990925009A0925109B09268
:100E800052090FEF1FEF8D899E89AF89B88D80932E
:100E90003B0990933C09A0933D09B0933E098DA175
:100EA0009EA1AFA1B8A580933F0990934009A0935C
:100EB0004109B093420989A59AA5ABA5BCA5809329
:100EC000430990934409A0934509B0934609809043
:100ED0004F0990905009A0905109B090520940904C
:100EE0004B0950904C0960904D0970904E09A50136
:100EF000940169A97AA98BA99CA90E943410A30125
:100F000092010E9433102D893E894F89588D0E948D
:100F1000AF106B017C01C0924709D0924809E09262
:100F20004909F0924A09A3019201C501B4010E9446
:100F3000AB10811146C010923F09109240091092E7
:100F400041091092420910923B0910923C091092FB
:100F50003D0910923E09C701B60167DA81110FC041
:100F600020E030E0A9016091470970914809809123
:100F7000490990914A090E94AB1081110CC080E090
:100F800090E0A0E8BFE38093470990934809A093BD
:100F90004909B0934A0920E030E040E450E4609110
:100FA0004709709148098091490990914A090E9426
:100FB000AF1060934309709344098093450990935F
:100FC0004609B801110F880B990B0E944A114B0179
:100FD0005C0120913B0930913C0940913D095091C1
:100FE0003E090E949F126B017C01C0923B09D09286
:100FF0003C09E0923D09F0923E0920913F09309171
:1010000040094091410950914209C501B4010E9433
:101010009F126B8F7C8F8D8F9E8F60933F09709393
:1010200040098093410990934209A98DBA8D8D9012
:101030009D90AD90BD90BA8FA98FED85FE85819270
:101040009192A192B192FE87ED8780915309909180
:101050005409A0915509B09156098DA79EA7AFA735
:10106000B8AB84839583A683B783C486D586E6868A
:10107000F7868B8D9C8DAD8DBE8D848B958BA68BCD
:10108000B78B8091430990914409A0914509B09193
:1010900046098F87988BA98BBA8B848F958FA68FE3
:1010A000B78F8091470990914809A0914909B09163
:1010B0004A098F8F98A3A9A3BAA384A395A3A6A333
:1010C000B7A3A7E5B8E0E4E21D92EA95E9F720E0CE
:1010D00030E0A901C701B6010E94AB1081119BC08D
:1010E00080926F0890927008A0927108B092720876
:1010F0008092730890927408A0927508B092760856
:101100008092770890927808A0927908B0927A0835
:1011100019821A821B821C821D821E822BA13CA175
:10112000B901330F880B990B0E944A1120E030E07F
:1011300040E85FE399D720E030E040E85FE393D7F1
:1011400020E030E040E450E40E949F1220E030E0D4
:1011500040E85FE389D76B017C01C0925309D092CC
:101160005409E0925509F092560920E030E040E041
:1011700050E47AD7A701960176D70E9417114B0148
:10118000F7EB6F2EF8E07F2E530110E000E08016A1
:1011900091060CF0C1C0EBE1CE2EE9E0DE2E760127
:1011A00010E000E0801691060CF0C8C090E080E0EE
:1011B000881699060CF0D0C0FE013196DF0110E0D0
:1011C00000E08D91882311F00F5F1F4FA215B3052A
:1011D000C1F721E090E080E03191332329F0D10183
:1011E000A80FB91F2C9301962F5F2730A9F7002E67
:1011F000000C110B5801AA0CBB1CAA0CBB1C27E548
:1012000038E090E080E0A901D101C6C0A1E0B0E0E3
:10121000BCA3ABA3FACD20E030E040E05FE36B8DF0
:101220007C8D8D8D9E8D0E949F122B013C014092E2
:101230005708509258086092590870925A08809244
:101240006F0890927008A0927108B0927208C092D4
:101250006708D0926808E0926908F0926A082F85C2
:10126000388949895A89CA01B9010E949F12A3018C
:1012700092010E949F122B013C0140924B09509217
:101280004C0960924D0970924E09AC019B01C50159
:10129000B401EAD66093730870937408809375085C
:1012A000909376086B8D7C8D8D8D9E8D905820E06F
:1012B00030E040E05FE30E949F1260935F0870930C
:1012C00060088093610890936208C0926B08D09286
:1012D0006C08E0926D08F0926E08A30192016DA572
:1012E0007EA58FA598A9C0D64B015C012F853889B2
:1012F00049895A89C701B6010E949F129B01AC011E
:10130000C501B401B0D660937708709378088093D4
:10131000790890937A08FCCEB801012E000C880B56
:10132000990BB8D7A70196019FD6D5016D937D93F0
:101330008D939D935D010F5F1F4F29CFF301619145
:101340007191819191913F0172D7D7016D937D93F6
:101350007D010F5F1F4F26CFD601ED91FD916D01ED
:10136000EC0FFD1FB1E0B083019622CF6D91FA0121
:10137000C190D190E190F190AF01FC01E60FF11D19
:1013800067FDFA95EE0FFF1FEE0FFF1FE552F84FB6
:10139000C082D182E282F382BD01621973096017B3
:1013A000710724F32A0D3B1D06968231910509F041
:1013B0002ACFAB89BC89CD90DD90ED90FC90C09296
:1013C0005309D0925409E0925509F0925609A701A9
:1013D00096016F85788989899A8946D6EB89FC8937
:1013E00064837583868397832F85388949895A89D1
:1013F0006F8D78A189A19AA136D6A701960134D61E
:10140000AB89BC8918966D937D938D939C931B97A4
:10141000A70196016F8D78A189A19AA125D6EB89A4
:10142000FC8964877587868797873C96FC8BEB8B56
:101430002BA13CA12130310509F0E8CE20915308C1
:1014400030915408409155085091560860914F08CA
:1014500070915008809151089091520805D6609380
:10146000F7087093F8088093F9089093FA0810929F
:10147000F3081092F4081092F5081092F6081092F2
:10148000CF081092D0081092D1081092D208109272
:10149000D3081092D4081092D5081092D60820E0F4
:1014A00030E0A9016091DF077091E0078091E107CA
:1014B0009091E2070E949F126B017C0120E030E0D6
:1014C000A9016091F7077091F8078091F907909151
:1014D000FA070E949F129B01AC01C701B601C4D557
:1014E00020910F0830911008409111085091120876
:1014F000BBD56093D7087093D8088093D908909390
:10150000DA08EBE8F7E084E5DF011D928A95E9F758
:101510004FECE42E48E0F42E27EE35E08901D701A8
:101520004D915D916D917D91F801EC55FE4F408399
:1015300051836283738390E080E0FC01E850FE4FAA
:10154000E20FF31F4081518162817381FC01E855F4
:10155000FE4FE00FF11F4083518362837383049633
:101560008831910551F7045E1F4F285E3F4FE6E03A
:101570000B331E07A9F620E030E040E85FE36091FE
:101580009B0870919C0880919D0890919E086BD556
:1015900060937B0870937C0880937D0890937E080D
:1015A000EFE7F8E08BE998E0448D558D668D778DF7
:1015B00041935193619371938E179F07A9F72091DF
:1015C0009308309194084091950850919608609145
:1015D0009708709198088091990890919A0843D53E
:1015E00060935709709358098093590990935A0949
:1015F0008090A3079090A407A090A507B090A6079D
:1016000020E030E040E050E4C8D99B01AC01C501C6
:10161000B40195D74B015C014090BF075090C007C3
:101620006090C1077090C207609157097091580986
:101630008091590990915A0920E030E040E85FE339
:10164000ACD99B01AC01C301B20179D7A5019401CA
:101650000BD54B015C014090DB075090DC0760909C
:10166000DD077090DE0760915709709158098091ED
:10167000590990915A0920E030E0A9018ED99B01C7
:10168000AC01C301B2015BD7A5019401EDD4609315
:10169000D7087093D8088093D9089093DA08EBE0C4
:1016A000F6E080E6DF011D928A95E9F747EE55E006
:1016B0009A0190E080E0FC01EC55FE4FE40FF51F2D
:1016C00080809180A280B380F901E80FF91F84A285
:1016D00095A2A6A2B7A204968C31910561F7F701F5
:1016E00081919191A191B1917F01F901E05CFF4F4E
:1016F00080839183A283B383205E3F4F445E5F4F1C
:1017000004171507B1F680E2EBE7F8E0A7EEB5E0C5
:1017100001900D928A95E1F720E030E040E85FE328
:1017200060919708709198088091990890919A0813
:101730009BD46093070670930806809309069093E4
:101740000A06EBECF6E080E6DF011D928A95E9F7E8
:101750003BE0A32E36E0B32E0BE216E07501F70155
:1017600061917191819191917F016F01FCEDCF0E9B
:10177000D11C9B01AC0178D4D6016D937D938D93E0
:101780009C9313970E151F0551F72BE2C22E26E0EE
:10179000D22E8BE496E08601F8014191519161913E
:1017A00071918F01E452FF4F4083518362837383B1
:1017B0008017910789F7EBE2F7E080E6DF011D92E1
:1017C0008A95E9F76BE076E087EE95E00E941602D5
:1017D0008BEC882E86E0982E9BEE692E96E0792E73
:1017E000F40161917191819191914F012F01FCE779
:1017F0004F0E511C9B01AC0137D4D2016D937D93E8
:101800008D939C9313976814790451F78091130971
:1018100090911409A0911509B09116098093FB08C5
:101820009093FC08A093FD08B093FE08EBEEF6E061
:101830008BE097E04191519161917191DF01A45842
:10184000BF4F4D935D936D937C9313978E179F07B6
:1018500089F78091170990911809A0911909B09101
:101860001A098093FF0890930009A0930109B0938F
:1018700002096BEC76E087EE95E00E9416028091FB
:10188000130990911409A0911509B091160980933C
:10189000030990930409A0930509B0930609809168
:1018A000170990911809A0911909B0911A0980930C
:1018B000070990930809A0930909B0930A096BE2FC
:1018C00077E087EE95E00E9416024091130950914F
:1018D0001409609115097091160940930B095093F2
:1018E0000C0960930D0970930E098091170990916E
:1018F0001809A0911909B0911A0980930F099093C2
:101900001009A0931109B09312094090FB08509060
:10191000FC086090FD087090FE084092DB08509231
:10192000DC086092DD087092DE0840900309509058
:10193000040960900509709006094092E3085092EE
:10194000E4086092E5087092E6084093EB08509333
:10195000EC086093ED087093EE084091FF085091F9
:10196000000960910109709102094093DF085093CA
:10197000E0086093E1087093E208409107095091F4
:1019800008096091090970910A094093E70850938A
:10199000E8086093E9087093EA088093EF08909351
:1019A000F008A093F108B093F208EBE6F6E080E6C9
:1019B000DF011D928A95E9F7F5016191719181919D
:1019C00091915F014F01FCE78F0E911C9B01AC01CF
:1019D0004BD3D4016D937D938D939C931397EA140D
:1019E000FB0451F7F60181919191A191B1916F01A1
:1019F000E458FF4F80839183A283B3830C151D05A8
:101A000089F7C0902709D0902809E0902909F09023
:101A10002A09C701B6010E941502811108C0B70149
:101A2000A6018BE696E00E9433036B017C01C09215
:101A30003309D0923409E0923509F092360911E069
:101A4000A70196016091000270910102809102024B
:101A50009091030280D318160CF410E010935B09E8
:101A6000612F86E00E947401C0902709D090280958
:101A7000E0902909F0902A09C701B6010E941502D9
:101A8000811108C0B701A6018BE096E00E943303E4
:101A90006B017C01C701B60138D460932B097093A8
:101AA0002C0980932D0990932E092091DF05309108
:101AB000E0054091E1055091E20520932F09309314
:101AC0003009409331095093320911E044D3811118
:101AD00001C010E010935C09612F83E00E94740143
:101AE0006091200270912102809122029091230244
:101AF0003FD86B017C01C0923709D0923809E0923F
:101B00003909F0923A0920E030E040E853E423D369
:101B10006FEF87FF0CC020E030E0A901C701B601DC
:101B20000AD560E087FD03C0C701B60185D388E010
:101B30000E94740180912B0990912C09A0912D098C
:101B4000B0912E098093DF059093E005A093E10505
:101B5000B093E205C090CE02D090CF02E090D002C8
:101B6000F090D102FFEFCF1ADF0AEF0AFF0AC0920E
:101B7000CE02D092CF02E092D002F092D102C114F4
:101B8000D104E104F10499F48091D2029091D3023E
:101B9000A091D402B091D5020196A11DB11D8093F0
:101BA000D2029093D302A093D402B093D502809036
:101BB000D6029090D702A090D802B090D90200919E
:101BC000E4021091E5026091D2027091D3028091FB
:101BD000D4029091D5025CD3A5019401B0D420E049
:101BE00030E040E85FE4ABD42B013C01C701B60113
:101BF0004FD3A5019401A3D49B01AC01C301B20151
:101C000033D2D8016D937D938D939C9313978091DC
:101C1000DA029091DB02A091DC02B091DD02019624
:101C2000A11DB11D8093DA029093DB02A093DC0228
:101C3000B093DD02892B8A2B8B2B99F48091DE02E5
:101C40009091DF02A091E002B091E1020196A11D06
:101C5000B11D8093DE029093DF02A093E002B09367
:101C6000E102E4960FB6F894DEBF0FBECDBFDF9160
:101C7000CF911F910F91FF90EF90DF90CF90BF9089
:101C8000AF909F908F907F906F905F904F903F901C
:101C90002F90089580918E0590918F05A0919005C9
:101CA000B09191050197A105B10519F481E08093E8
:101CB00092058091080290910902A0910A02B091C8
:101CC0000B028093B3059093B405A093B505B09330
:101CD000B60580910C0290910D02A0910E02B09178
:101CE0000F028093B7059093B805A093B905B09300
:101CF000BA058091100290911102A0911202B09148
:101D000013028093BB059093BC05A093BD05B093CF
:101D1000BE050C9457068F929F92AF92BF92EF929E
:101D2000FF920F931F93CF93DF9384E090E00E9484
:101D30009901EAE4F2E084EADF011D928A95E9F76D
:101D400082EE92E095838483C4EED2E0D7AFC6AF33
:101D500006ED12E0138B028BF093B302E093B20214
:101D6000F383E28321E030E0DC012D933C9384E2B5
:101D700092E09187808786EE92E09983888347E19D
:101D800057EB61E578E3F801408351836283738305
:101D9000E7EEF5E086E793E0DF019C011D9221501C
:101DA0003040E1F7E2E9F5E085E5DF011D928A9533
:101DB000E9F7CEE8D5E011E01093E30580E0E82EE6
:101DC00082E0F82EF70180859185A285B3858DA3E9
:101DD0009EA3AFA3B8A784859585A685B78589A757
:101DE0009AA7ABA7BCA780899189A289B3898DA73F
:101DF0009EA7AFA7B8AB84899589A689B78989AB17
:101E00009AABABABBCAB808D918DA28DB38D8DABFE
:101E10009EABAFABB8AF812C912C540183948882D8
:101E20009982AA82BB821093E5058092D005909298
:101E3000D105A092D205B092D30561E086E00E9460
:101E40006C011093D40519AE1093E4058AAE9BAED5
:101E5000ACAEBDAE61E083E00E946C011EAF10929B
:101E6000D7051093E6058092D8059092D905A092E7
:101E7000DA05B092DB0561E088E00E946C01109306
:101E8000DC05F70184819581A681B7818093DF0508
:101E90009093E005A093E105B093E205DF91CF9127
:101EA0001F910F91FF90EF90BF90AF909F908F90F8
:101EB00008958091CF05811103C081E08093CF0503
:101EC0008091C705811103C081E08093C70580918F
:101ED000D705811103C081E08093D705089540E8BC
:101EE00055E260E070E090E080E000C08130910554
:101EF00071F01CF4892B39F008958230910559F066
:101F0000039769F0089526E082E093E085C726E014
:101F10008FE993E0FBCF26E08CE394E0F7CF26E057
:101F200089ED94E0F3CF0895CF92DF92EF92FF9284
:101F30000F931F9351D56093EE027093EF0280933D
:101F4000F0029093F1020091F2021091F3022091BD
:101F5000F4023091F5026B017C01C01AD10AE20A49
:101F6000F30A97018601023311052105310508F1B5
:101F70006093F2027093F3028093F4029093F5025F
:101F800025D02AD50091F2021091F3022091F4029B
:101F90003091F502601B710B820B930B623371055C
:101FA0008105910570F081E090E09093F8028093B4
:101FB000F70281E01F910F91FF90EF90DF90CF909B
:101FC00008951092F8021092F702F3CF8091F60272
:101FD00091E0980F9093F602882349F021E030E0D9
:101FE0003093F8022093F7028093F60208950E943E
:101FF00007068091F6028150F7CFCF93DF931092BE
:102000005E0910925D090DD56ADFC0913602D0914C
:102010003702198218827FDEF89485DF81E02881FB
:102020003981232B09F080E080935D0978948091B9
:102030005D09811107C03DDFF89490E080E0DF91F9
:10204000CF91089581E028813981232B09F480E024
:1020500080935E0990915E0981E0911180E0809308
:102060005D0962DFE4CF5058BB27AA270ED012C209
:1020700003D230F008D220F031F49F3F11F41EF467
:10208000F8C10EF4E095E7FBC5C1E92F14D280F347
:10209000BA17620773078407950718F071F49EF565
:1020A00043C20EF4E0950B2EBA2FA02D0B01B901FF
:1020B00090010C01CA01A0011124FF27591B99F0BE
:1020C000593F50F4503E68F11A16F040A22F232FCA
:1020D000342F4427585FF3CF469537952795A7951A
:1020E000F0405395C9F77EF41F16BA0B620B730BC1
:1020F000840BBAF09150A1F0FF0FBB1F661F771F32
:10210000881FC2F70EC0BA0F621F731F841F48F4E6
:10211000879577956795B795F7959E3F08F0B3CF6C
:102120009395880F08F09927EE0F97958795089556
:10213000E4D180F09F3740F491110EF4F6C160E0D5
:1021400070E080E89FE3089526F01B16611D711D65
:10215000811D66C180C13AD108F481E008950CD098
:1021600099C191D140F088D130F021F45F3F19F04E
:1021700051C15111DAC17DC19ED198F39923C9F3A0
:102180005523B1F3951B550BBB27AA27621773077D
:10219000840738F09F5F5F4F220F331F441FAA1F31
:1021A000A9F333D00E2E3AF0E0E830D091505040F1
:1021B000E695001CCAF729D0FE2F27D0660F771F9F
:1021C000881FBB1F261737074807AB07B0E809F081
:1021D000BB0B802DBF01FF2793585F4F2AF09E3F16
:1021E000510568F017C1A1C15F3FECF3983EDCF3E5
:1021F000869577956795B795F7959F5FC9F7880F8F
:10220000911D9695879597F90895E1E0660F771FE0
:10221000881FBB1F621773078407BA0720F0621B71
:10222000730B840BBA0BEE1F88F7E095089504D06A
:102230006894B1117AC1089546D188F09F5790F003
:10224000B92F9927B751A0F0D1F0660F771F881FDB
:10225000991F1AF0BA95C9F712C0B13081F064D154
:10226000B1E0089561C1672F782F8827B85F39F0F2
:10227000B93FCCF3869577956795B395D9F73EF43A
:1022800090958095709561957F4F8F4F9F4F0895E2
:10229000E89409C097FB3EF4909580957095619500
:1022A0007F4F8F4F9F4F9923A9F0F92F96E9BB27B6
:1022B0009395F695879577956795B795F111F8CF32
:1022C000FAF4BB0F11F460FF1BC06F5F7F4F8F4F9D
:1022D0009F4F16C0882311F096E911C0772321F093
:1022E0009EE8872F762F05C0662371F096E8862F2B
:1022F00070E060E02AF09A95660F771F881FDAF782
:10230000880F9695879597F90895F7D080F09F37B5
:1023100040F491110EF009C160E070E080E89FEB9D
:10232000089526F41B16611D711D811D79C093C08F
:10233000A3D018F011F0A7D038F49BC0F6C0E92F55
:10234000BAD0B0F35523C9F3E7FB621773078407CC
:102350009507A8F199F3E92FFF2788232AF03197F1
:10236000660F771F881FDAF7952F5527442332F021
:1023700091505040220F331F441FD2F7BB27E91B57
:10238000F50B621B730B840BB109C1F222F4620FCF
:10239000731F841FB11D31972AF0660F771F881FA6
:1023A000BB1FEFCF915050405AF041F0882332F0DC
:1023B000660F771F881F91505040C1F793954BC00F
:1023C0008695779567959F5FD9F7F8CF990F0008A5
:1023D000550FAA0BE0E8FEEF16161706E807F907F7
:1023E000C0F012161306E407F50798F0621B730B92
:1023F000840B950B39F40A2661F0232B242B252B13
:1024000021F408950A2609F4A140A6958FEF811DB5
:10241000811D089597F99F6780E870E060E0089556
:10242000882371F4772321F09850872B762F07C0EB
:10243000662311F499270DC09051862B70E060E05F
:102440002AF09A95660F771F881FDAF7880F9695FE
:10245000879597F908959F3F31F0915020F4879523
:1024600077956795B795880F911D9695879597F9FC
:1024700008959FEF80EC089500240A94161617061D
:1024800018060906089500240A9412161306140665
:1024900005060895092E0394000C11F4882352F0C8
:1024A000BB0F40F4BF2B11F460FF04C06F5F7F4F80
:1024B0008F4F9F4F089557FD9058440F551F59F067
:1024C0005F3F71F04795880F97FB991F61F09F3F21
:1024D00079F087950895121613061406551FF2CF4A
:1024E0004695F1DF08C0161617061806991FF1CF9A
:1024F00086957105610508940895E5DFA0F0BEE7B3
:10250000B91788F4BB279F3860F41616B11D672FE2
:10251000782F8827985FF7CF869577956795B11DB7
:1025200093959639C8F30895E894BB2766277727D3
:10253000CB0197F908954ADF08F48FEF08950BD087
:10254000A9CF9ADF28F09FDF18F0952309F062CF1A
:1025500090CF1124EACFAFDFA0F3959FD1F3950F71
:1025600050E0551F629FF001729FBB27F00DB11D17
:10257000639FAA27F00DB11DAA1F649F6627B00DA7
:10258000A11D661F829F2227B00DA11D621F739F90
:10259000B00DA11D621F839FA00D611D221F749F9E
:1025A0003327A00D611D231F849F600D211D822FE5
:1025B000762F6A2F11249F5750408AF0E1F088232C
:1025C0004AF0EE0FFF1FBB1F661F771F881F915039
:1025D0005040A9F79E3F510570F01CCFA6CF5F3F3A
:1025E000ECF3983EDCF3869577956795B795F7956C
:1025F000E7959F5FC1F7FE2B880F911D96958795F4
:1026000097F90895FA01EE0FFF1F30962105310565
:1026100099F16115710561F48038BFE39B0749F1B9
:1026200068949038810561F08038BFEF9B0741F0D6
:10263000992342F5FF3FE1053105210511F1E894A9
:102640000894E795D901AA2329F4AB2FBE2FF85F90
:10265000D0F310C0FF5F70F4A695E0F7F73950F0A3
:1026600019F0FF3A38F49F779F930CD00F9007FC36
:10267000905808953EF0FDCE60E070E080E89FE362
:1026800008954FE79F775F934F933F932F93E7D042
:102690002F913F914F915F9152DF47C011F40EF49B
:1026A000E8CED9CE10DFD0F39923D9F3CEF39F57DC
:1026B000550B87FF66D00024A0E640EA90018058C1
:1026C0005695979528F4805C660F771F881F20F039
:1026D00026173707480730F4621B730B840B202939
:1026E00031294A2BA69517940794202531254A278E
:1026F00058F7660F771F881F20F0261737074807FF
:1027000030F4620B730B840B200D311D411DA0951D
:1027100081F7B901842F9158880F96958795089570
:1027200019F40EF077CE00CFA4CECDDEC8F39638E4
:10273000C0F707F80F92E8942BE33AEA48EB5FE71B
:102740000CDF0F920F920F924DB75EB70F92C7D06A
:10275000E4EEF0E01DD04F915F91EF91FF91E59590
:10276000EE1FFF1F49F0FE57E0684427EE0F441F9D
:10277000FA95E1F74195550B39D00F9007FE2DC022
:10278000089591505040660F771F881FD2F7089523
:10279000DF93CF931F930F93FF92EF92DF927B0112
:1027A0008C01689405C0DA2EEF01D5DEFE01E894B5
:1027B000A5912591359145915591AEF3EF0165DCD9
:1027C000FE019701A801DA9479F7DF90EF90FF906E
:1027D0000F911F91CF91DF9108959B01AC0160E0B3
:1027E00070E080E89FE3BBCC15CE35CE6CDEE8F31D
:1027F0009923D9F3940F511DBBF39150504094F09D
:1028000059F0882332F0660F771F881F915050408F
:10281000C1F79E3F510544F7880F911D9695879506
:1028200097F908955F3FACF0983E9CF0BB278695E2
:1028300077956795B79508F4B1609395C1F7BB0F8D
:1028400058F711F460FFE8CF6F5F7F4F8F4F9F4FB6
:10285000E3CF6BCE0EF0FFCD0CCE6894DBCD33DE34
:10286000C8F39923D1F3C6F3DF93CF931F930F934C
:10287000FF92C92FDD2788232AF02197660F771F43
:10288000881FDAF720E030E040E85FEB9FE388390B
:1028900020F0803E30F021968F77E6DBECE0F1E02F
:1028A00003C0E2DBE9E3F1E073DF8B01BE01EC0181
:1028B000FB2E6F5771097595771F880B990BEADC12
:1028C00028E132E741E35FE346DEAF2D9801AE0138
:1028D000FF900F911F91CF91DF91D7DBDBCDFA01F4
:1028E000DC01AA0FBB1F9B01AC01BF5728F42227B4
:1028F0003327442750781FC0B75188F4AB2F0024EA
:10290000469537952795011CA395D2F3002069F0D1
:10291000220F331F441FB395DAF30DD0A4CB6130DF
:102920007105A0E88A07B94630F49B01AC0166271F
:10293000772788279078309621F02083318342834F
:10294000538308951F920F920FB60F9211242F9365
:102950003F938F939F93AF93BF938091FA0290918F
:10296000FB02A091FC02B091FD023091F90223E03C
:10297000230F2D3758F50196A11DB11D2093F902A3
:102980008093FA029093FB02A093FC02B093FD02A5
:102990008091FE029091FF02A0910003B09101038B
:1029A0000196A11DB11D8093FE029093FF02A0939A
:1029B0000003B0930103BF91AF919F918F913F911D
:1029C0002F910F900FBE0F901F90189526E8230FA0
:1029D0000296A11DB11DD2CF3FB7F8948091FE029F
:1029E0009091FF02A0910003B091010326B5A89B2E
:1029F00005C02F3F19F00196A11DB11D3FBFBA2F91
:102A0000A92F982F8827BC01CD01620F711D811D50
:102A1000911D42E0660F771F881F991F4A95D1F7D5
:102A20000895789484B5826084BD84B5816084BD46
:102A300085B5826085BD85B5816085BDEEE6F0E037
:102A4000808181608083E1E8F0E010828081826093
:102A50008083808181608083E0E8F0E08081816014
:102A60008083E1EBF0E0808184608083E0EBF0E044
:102A7000808181608083E1E9F0E0808182608083F1
:102A8000808181608083E0E9F0E0808181608083E3
:102A9000E1EAF0E0808182608083808181608083D0
:102AA000E0EAF0E0808181608083E1E2F1E0808112
:102AB00082608083808181608083E0E2F1E08081B8
:102AC00081608083EAE7F0E0808184608083808198
:102AD0008260808380818160808380818068808340
:102AE0001092C10008958150823108F059C0E82F3A
:102AF000F0E08827E258FA4E8F4F6DC49E15A2155C
:102B0000901596159A15D015A515AB15AF15B515D9
:102B1000B915BD15C315C715D015CB15D115D515CC
:102B2000809180008F77809380000895809180004D
:102B30008F7DF9CF80918000877FF5CF84B58F7727
:102B400084BD089584B58F7DFBCF8091B0008F77D1
:102B50008093B00008958091B0008F7DF9CF80916F
:102B600090008F77809390000895809190008F7DE2
:102B7000F9CF80919000877FF5CF8091A0008F776B
:102B80008093A00008958091A0008F7DF9CF80915F
:102B9000A000877FF5CF809120018F77809320015F
:102BA0000895809120018F7DF9CF80912001877F4A
:102BB000F5CFCF93DF9390E0FC01E455FE4F2491D5
:102BC0008E509E4FFC0184918823C9F090E0880FBD
:102BD000991FFC01EE5AFD4FA591B491FC01E85CF0
:102BE000FD4FC591D49161110DC09FB7F8948C91A0
:102BF000209582238C938881282328839FBFDF918F
:102C0000CF910895623051F49FB7F8943C91822F90
:102C1000809583238C93E8812E2BEFCF8FB7F89488
:102C2000EC912E2B2C938FBFEACF1F93CF93DF9382
:102C3000282F30E0F901EA59FE4F8491F901E4555B
:102C4000FE4FD491F901EE50FE4FC491CC23A1F078
:102C5000162F811148DFEC2FF0E0EE0FFF1FE85C2C
:102C6000FD4FA591B4918FB7F894EC91111108C064
:102C7000D095DE23DC938FBFDF91CF911F91089514
:102C8000DE2BF8CFFC01918D228D892F90E0805CA6
:102C90009F4F821B91098F7399270895FC01918D95
:102CA000828D981731F0828DE80FF11D858D90E0AF
:102CB00008958FEF9FEF0895FC01918D828D9817F5
:102CC00061F0A28DAE0FBF2FB11D5D968C91928DDC
:102CD0009F5F9F73928F90E008958FEF9FEF08950D
:102CE000FC01538D448D252F30E0842F90E0821B12
:102CF000930B541710F0CF96089501970895FC0197
:102D0000A48DA80FB92FB11DA35ABF4F2C91848D4C
:102D100090E001968F739927848FA689B7892C93A9
:102D2000A089B1898C91837080648C93938D848DFC
:102D3000981306C00288F389E02D80818F7D8083FF
:102D40000895CF93DF93EC01888D8823B1F0AA8991
:102D5000BB89E889F9898C9185FD03C0808186FD56
:102D60000CC00FB607FCF7CF8C9185FFF2CF8081A6
:102D700085FFEDCFCE01C3DFEACFDF91CF9108957C
:102D8000EF92FF920F931F93CF93DF93EC0181E0BB
:102D9000888F9B8D8C8D98131AC0E889F989808162
:102DA00085FF15C09FB7F894EE89FF896083E88995
:102DB000F98980818370806480839FBF81E090E087
:102DC000DF91CF911F910F91FF90EF900895F62E14
:102DD0000B8D10E00F5F1F4F0F731127E02E8C8DAE
:102DE0008E110BC00FB607FCFACFE889F9898081F4
:102DF00085FFF5CFCE0183DFF2CFEB8DEC0FFD2FFA
:102E0000F11DE35AFF4FF0829FB7F8940B8FEA89C8
:102E1000FB8980818062D0CFCF92DF92EF92FF92C8
:102E20001F93CF93DF93EC016A017B01122FE88996
:102E3000F98982E08083C11481EED806E104F104AF
:102E400099F060E079E08DE390E0A7019601A1D2CE
:102E500021503109410951095695479537952795D4
:102E6000211580E1380790F0E889F989108260E83F
:102E700074E88EE190E0A70196018BD221503109D0
:102E8000410951095695479537952795EC85FD855C
:102E90003083EE85FF852083188EEC89FD891083B1
:102EA000EA89FB89808180618083EA89FB8980814E
:102EB00088608083EA89FB89808180688083EA89D1
:102EC000FB8980818F7D8083DF91CF911F91FF905F
:102ED000EF90DF90CF9008951F920F920FB60F9250
:102EE00011240BB60F922F938F939F93EF93FF9321
:102EF000E0911203F09113038081E0911803F091A7
:102F0000190382FD1DC0908180911B038F5F8F7319
:102F100020911C03821741F0E0911B03F0E0EE5F6B
:102F2000FC4F958F80931B03FF91EF919F918F91A1
:102F30002F910F900BBE0F900FBE0F901F90189502
:102F40008081F2CF1F920F920FB60F9211240BB611
:102F50000F922F933F934F935F936F937F938F9332
:102F60009F93AF93BF93EF93FF9382E093E0C7DE0D
:102F7000FF91EF91BF91AF919F918F917F916F9151
:102F80005F914F913F912F910F900BBE0F900FBE0D
:102F90000F901F901895E2E0F3E01382128288EE02
:102FA00093E0A0E0B0E084839583A683B7838CE3AD
:102FB00092E09183808385EC90E09587848784EC10
:102FC00090E09787868780EC90E0918B808B81ECF6
:102FD00090E0938B828B82EC90E0958B848B86ECD7
:102FE00090E0978B868B118E128E138E148E08951F
:102FF0001F920F920FB60F9211240BB60F922F93C0
:103000008F939F93EF93FF93E091AF03F091B00301
:103010008081E091B503F091B60382FD1DC09081DF
:103020008091B8038F5F8F732091B903821741F0AD
:10303000E091B803F0E0E156FC4F958F8093B80320
:10304000FF91EF919F918F912F910F900BBE0F9059
:103050000FBE0F901F9018958081F2CF1F920F9294
:103060000FB60F9211240BB60F922F933F934F93ED
:103070005F936F937F938F939F93AF93BF93EF93E0
:10308000FF938FE993E03BDEFF91EF91BF91AF910A
:103090009F918F917F916F915F914F913F912F9170
:1030A0000F900BBE0F900FBE0F901F901895EFE979
:1030B000F3E01382128288EE93E0A0E0B0E0848314
:1030C0009583A683B7838CE392E0918380838DEC14
:1030D00090E0958784878CEC90E09787868788ECD2
:1030E00090E0918B808B89EC90E0938B828B8AECC3
:1030F00090E0958B848B8EEC90E0978B868B118E75
:10310000128E138E148E08951F920F920FB60F9287
:1031100011240BB60F922F938F939F93EF93FF93EE
:10312000E0914C04F0914D048081E0915204F091C3
:10313000530482FD1DC09081809155048F5F8F7371
:1031400020915604821741F0E0915504F0E0E45CD0
:10315000FB4F958F80935504FF91EF919F918F9135
:103160002F910F900BBE0F900FBE0F901F901895D0
:103170008081F2CF1F920F920FB60F9211240BB6DF
:103180000F922F933F934F935F936F937F938F9300
:103190009F93AF93BF93EF93FF938CE394E0AFDDE6
:1031A000FF91EF91BF91AF919F918F917F916F911F
:1031B0005F914F913F912F910F900BBE0F900FBEDB
:1031C0000F901F901895ECE3F4E01382128288EEC2
:1031D00093E0A0E0B0E084839583A683B7838CE37B
:1031E00092E09183808385ED90E09587848784EDDC
:1031F00090E09787868780ED90E0918B808B81EDC2
:1032000090E0938B828B82ED90E0958B848B86EDA2
:1032100090E0978B868B118E128E138E148E0895EC
:103220001F920F920FB60F9211240BB60F922F938D
:103230008F939F93EF93FF93E091E904F091EA0459
:103240008081E091EF04F091F00482FD1DC0908137
:103250008091F2048F5F8F732091F304821741F005
:10326000E091F204F0E0E752FB4F958F8093F20477
:10327000FF91EF919F918F912F910F900BBE0F9027
:103280000FBE0F901F9018958081F2CF1F920F9262
:103290000FB60F9211240BB60F922F933F934F93BB
:1032A0005F936F937F938F939F93AF93BF93EF93AE
:1032B000FF9389ED94E023DDFF91EF91BF91AF91F2
:1032C0009F918F917F916F915F914F913F912F913E
:1032D0000F900BBE0F900FBE0F901F901895E9ED49
:1032E000F4E01382128288EE93E0A0E0B0E08483E1
:1032F0009583A683B7838CE392E09183808385E3F3
:1033000091E09587848784E391E09787868780E3BF
:1033100091E0918B808B81E391E0938B828B82E3B0
:1033200091E0958B848B86E391E0978B868B118E51
:10333000128E138E148E0895AF92BF92CF92DF92A9
:10334000EF92FF920F931F93CF93DF936C017B015A
:103350008B01040F151FEB015E01AE18BF08C017EB
:10336000D10759F06991D601ED91FC910190F0815E
:10337000E02DC6011995892B79F7C501DF91CF9111
:103380001F910F91FF90EF90DF90CF90BF90AF9083
:103390000895A1E21A2EAA1BBB1BFD010DC0AA1F96
:1033A000BB1FEE1FFF1FA217B307E407F50720F0AE
:1033B000A21BB30BE40BF50B661F771F881F991F29
:1033C0001A9469F760957095809590959B01AC0172
:1033D000BD01CF010895EE0FFF1F881F8BBF07901F
:0A33E000F691E02D1994F894FFCF48
:1033EA0000000000000000000000000000C00F45BF
:1033FA000000000000803B460050C3476666263F37
:10340A000000000046697865645374657044697306
:10341A006372657465004A0200000000C0169C19B8
:0A342A007016A11642165C164E162D
:00000001FF
